{
  "_format": "hh-sol-artifact-1",
  "contractName": "Eggie",
  "sourceName": "contracts/Eggie.sol",
  "abi": [
    {
      "inputs": [
        {
          "internalType": "bytes32",
          "name": "merkleroot",
          "type": "bytes32"
        }
      ],
      "stateMutability": "nonpayable",
      "type": "constructor"
    },
    {
      "anonymous": false,
      "inputs": [
        {
          "indexed": true,
          "internalType": "address",
          "name": "owner",
          "type": "address"
        },
        {
          "indexed": true,
          "internalType": "address",
          "name": "approved",
          "type": "address"
        },
        {
          "indexed": true,
          "internalType": "uint256",
          "name": "tokenId",
          "type": "uint256"
        }
      ],
      "name": "Approval",
      "type": "event"
    },
    {
      "anonymous": false,
      "inputs": [
        {
          "indexed": true,
          "internalType": "address",
          "name": "owner",
          "type": "address"
        },
        {
          "indexed": true,
          "internalType": "address",
          "name": "operator",
          "type": "address"
        },
        {
          "indexed": false,
          "internalType": "bool",
          "name": "approved",
          "type": "bool"
        }
      ],
      "name": "ApprovalForAll",
      "type": "event"
    },
    {
      "anonymous": false,
      "inputs": [
        {
          "indexed": true,
          "internalType": "address",
          "name": "previousOwner",
          "type": "address"
        },
        {
          "indexed": true,
          "internalType": "address",
          "name": "newOwner",
          "type": "address"
        }
      ],
      "name": "OwnershipTransferred",
      "type": "event"
    },
    {
      "anonymous": false,
      "inputs": [
        {
          "indexed": true,
          "internalType": "bytes32",
          "name": "role",
          "type": "bytes32"
        },
        {
          "indexed": true,
          "internalType": "bytes32",
          "name": "previousAdminRole",
          "type": "bytes32"
        },
        {
          "indexed": true,
          "internalType": "bytes32",
          "name": "newAdminRole",
          "type": "bytes32"
        }
      ],
      "name": "RoleAdminChanged",
      "type": "event"
    },
    {
      "anonymous": false,
      "inputs": [
        {
          "indexed": true,
          "internalType": "bytes32",
          "name": "role",
          "type": "bytes32"
        },
        {
          "indexed": true,
          "internalType": "address",
          "name": "account",
          "type": "address"
        },
        {
          "indexed": true,
          "internalType": "address",
          "name": "sender",
          "type": "address"
        }
      ],
      "name": "RoleGranted",
      "type": "event"
    },
    {
      "anonymous": false,
      "inputs": [
        {
          "indexed": true,
          "internalType": "bytes32",
          "name": "role",
          "type": "bytes32"
        },
        {
          "indexed": true,
          "internalType": "address",
          "name": "account",
          "type": "address"
        },
        {
          "indexed": true,
          "internalType": "address",
          "name": "sender",
          "type": "address"
        }
      ],
      "name": "RoleRevoked",
      "type": "event"
    },
    {
      "anonymous": false,
      "inputs": [
        {
          "indexed": true,
          "internalType": "address",
          "name": "from",
          "type": "address"
        },
        {
          "indexed": true,
          "internalType": "address",
          "name": "to",
          "type": "address"
        },
        {
          "indexed": true,
          "internalType": "uint256",
          "name": "tokenId",
          "type": "uint256"
        }
      ],
      "name": "Transfer",
      "type": "event"
    },
    {
      "inputs": [],
      "name": "DEFAULT_ADMIN_ROLE",
      "outputs": [
        {
          "internalType": "bytes32",
          "name": "",
          "type": "bytes32"
        }
      ],
      "stateMutability": "view",
      "type": "function"
    },
    {
      "inputs": [],
      "name": "MINTER_ROLE",
      "outputs": [
        {
          "internalType": "bytes32",
          "name": "",
          "type": "bytes32"
        }
      ],
      "stateMutability": "view",
      "type": "function"
    },
    {
      "inputs": [
        {
          "internalType": "address",
          "name": "account",
          "type": "address"
        },
        {
          "internalType": "uint256",
          "name": "tokenId",
          "type": "uint256"
        }
      ],
      "name": "_hash",
      "outputs": [
        {
          "internalType": "bytes32",
          "name": "",
          "type": "bytes32"
        }
      ],
      "stateMutability": "pure",
      "type": "function"
    },
    {
      "inputs": [
        {
          "internalType": "address",
          "name": "to",
          "type": "address"
        },
        {
          "internalType": "uint256",
          "name": "tokenId",
          "type": "uint256"
        }
      ],
      "name": "approve",
      "outputs": [],
      "stateMutability": "nonpayable",
      "type": "function"
    },
    {
      "inputs": [
        {
          "internalType": "address",
          "name": "owner",
          "type": "address"
        }
      ],
      "name": "balanceOf",
      "outputs": [
        {
          "internalType": "uint256",
          "name": "",
          "type": "uint256"
        }
      ],
      "stateMutability": "view",
      "type": "function"
    },
    {
      "inputs": [],
      "name": "baseURI",
      "outputs": [
        {
          "internalType": "string",
          "name": "",
          "type": "string"
        }
      ],
      "stateMutability": "view",
      "type": "function"
    },
    {
      "inputs": [
        {
          "internalType": "uint256",
          "name": "tokenId",
          "type": "uint256"
        }
      ],
      "name": "getApproved",
      "outputs": [
        {
          "internalType": "address",
          "name": "",
          "type": "address"
        }
      ],
      "stateMutability": "view",
      "type": "function"
    },
    {
      "inputs": [
        {
          "internalType": "bytes32",
          "name": "role",
          "type": "bytes32"
        }
      ],
      "name": "getRoleAdmin",
      "outputs": [
        {
          "internalType": "bytes32",
          "name": "",
          "type": "bytes32"
        }
      ],
      "stateMutability": "view",
      "type": "function"
    },
    {
      "inputs": [
        {
          "internalType": "bytes32",
          "name": "role",
          "type": "bytes32"
        },
        {
          "internalType": "address",
          "name": "account",
          "type": "address"
        }
      ],
      "name": "grantRole",
      "outputs": [],
      "stateMutability": "nonpayable",
      "type": "function"
    },
    {
      "inputs": [
        {
          "internalType": "bytes32",
          "name": "role",
          "type": "bytes32"
        },
        {
          "internalType": "address",
          "name": "account",
          "type": "address"
        }
      ],
      "name": "hasRole",
      "outputs": [
        {
          "internalType": "bool",
          "name": "",
          "type": "bool"
        }
      ],
      "stateMutability": "view",
      "type": "function"
    },
    {
      "inputs": [
        {
          "internalType": "address",
          "name": "owner",
          "type": "address"
        },
        {
          "internalType": "address",
          "name": "operator",
          "type": "address"
        }
      ],
      "name": "isApprovedForAll",
      "outputs": [
        {
          "internalType": "bool",
          "name": "",
          "type": "bool"
        }
      ],
      "stateMutability": "view",
      "type": "function"
    },
    {
      "inputs": [],
      "name": "name",
      "outputs": [
        {
          "internalType": "string",
          "name": "",
          "type": "string"
        }
      ],
      "stateMutability": "view",
      "type": "function"
    },
    {
      "inputs": [],
      "name": "owner",
      "outputs": [
        {
          "internalType": "address",
          "name": "",
          "type": "address"
        }
      ],
      "stateMutability": "view",
      "type": "function"
    },
    {
      "inputs": [
        {
          "internalType": "uint256",
          "name": "tokenId",
          "type": "uint256"
        }
      ],
      "name": "ownerOf",
      "outputs": [
        {
          "internalType": "address",
          "name": "",
          "type": "address"
        }
      ],
      "stateMutability": "view",
      "type": "function"
    },
    {
      "inputs": [],
      "name": "publicMint",
      "outputs": [
        {
          "internalType": "uint256",
          "name": "",
          "type": "uint256"
        }
      ],
      "stateMutability": "nonpayable",
      "type": "function"
    },
    {
      "inputs": [
        {
          "internalType": "uint256",
          "name": "tokenId",
          "type": "uint256"
        },
        {
          "internalType": "bytes32[]",
          "name": "proof",
          "type": "bytes32[]"
        }
      ],
      "name": "redeemMerkle",
      "outputs": [],
      "stateMutability": "nonpayable",
      "type": "function"
    },
    {
      "inputs": [],
      "name": "renounceOwnership",
      "outputs": [],
      "stateMutability": "nonpayable",
      "type": "function"
    },
    {
      "inputs": [
        {
          "internalType": "bytes32",
          "name": "role",
          "type": "bytes32"
        },
        {
          "internalType": "address",
          "name": "account",
          "type": "address"
        }
      ],
      "name": "renounceRole",
      "outputs": [],
      "stateMutability": "nonpayable",
      "type": "function"
    },
    {
      "inputs": [
        {
          "internalType": "bytes32",
          "name": "role",
          "type": "bytes32"
        },
        {
          "internalType": "address",
          "name": "account",
          "type": "address"
        }
      ],
      "name": "revokeRole",
      "outputs": [],
      "stateMutability": "nonpayable",
      "type": "function"
    },
    {
      "inputs": [],
      "name": "root",
      "outputs": [
        {
          "internalType": "bytes32",
          "name": "",
          "type": "bytes32"
        }
      ],
      "stateMutability": "view",
      "type": "function"
    },
    {
      "inputs": [
        {
          "internalType": "address",
          "name": "account",
          "type": "address"
        },
        {
          "internalType": "bytes",
          "name": "signature",
          "type": "bytes"
        }
      ],
      "name": "safeMint",
      "outputs": [],
      "stateMutability": "nonpayable",
      "type": "function"
    },
    {
      "inputs": [
        {
          "internalType": "address",
          "name": "from",
          "type": "address"
        },
        {
          "internalType": "address",
          "name": "to",
          "type": "address"
        },
        {
          "internalType": "uint256",
          "name": "tokenId",
          "type": "uint256"
        }
      ],
      "name": "safeTransferFrom",
      "outputs": [],
      "stateMutability": "nonpayable",
      "type": "function"
    },
    {
      "inputs": [
        {
          "internalType": "address",
          "name": "from",
          "type": "address"
        },
        {
          "internalType": "address",
          "name": "to",
          "type": "address"
        },
        {
          "internalType": "uint256",
          "name": "tokenId",
          "type": "uint256"
        },
        {
          "internalType": "bytes",
          "name": "_data",
          "type": "bytes"
        }
      ],
      "name": "safeTransferFrom",
      "outputs": [],
      "stateMutability": "nonpayable",
      "type": "function"
    },
    {
      "inputs": [
        {
          "internalType": "address",
          "name": "operator",
          "type": "address"
        },
        {
          "internalType": "bool",
          "name": "approved",
          "type": "bool"
        }
      ],
      "name": "setApprovalForAll",
      "outputs": [],
      "stateMutability": "nonpayable",
      "type": "function"
    },
    {
      "inputs": [
        {
          "internalType": "bytes4",
          "name": "interfaceId",
          "type": "bytes4"
        }
      ],
      "name": "supportsInterface",
      "outputs": [
        {
          "internalType": "bool",
          "name": "",
          "type": "bool"
        }
      ],
      "stateMutability": "view",
      "type": "function"
    },
    {
      "inputs": [],
      "name": "symbol",
      "outputs": [
        {
          "internalType": "string",
          "name": "",
          "type": "string"
        }
      ],
      "stateMutability": "view",
      "type": "function"
    },
    {
      "inputs": [
        {
          "internalType": "uint256",
          "name": "tokenId",
          "type": "uint256"
        }
      ],
      "name": "tokenURI",
      "outputs": [
        {
          "internalType": "string",
          "name": "",
          "type": "string"
        }
      ],
      "stateMutability": "view",
      "type": "function"
    },
    {
      "inputs": [
        {
          "internalType": "address",
          "name": "from",
          "type": "address"
        },
        {
          "internalType": "address",
          "name": "to",
          "type": "address"
        },
        {
          "internalType": "uint256",
          "name": "tokenId",
          "type": "uint256"
        }
      ],
      "name": "transferFrom",
      "outputs": [],
      "stateMutability": "nonpayable",
      "type": "function"
    },
    {
      "inputs": [
        {
          "internalType": "address",
          "name": "newOwner",
          "type": "address"
        }
      ],
      "name": "transferOwnership",
      "outputs": [],
      "stateMutability": "nonpayable",
      "type": "function"
    }
  ],
  "bytecode": "0x60a06040526040518060600160405280602281526020016200446d602291396009908051906020019062000035929190620003d7565b503480156200004357600080fd5b506040516200448f3803806200448f83398181016040528101906200006991906200049e565b6040518060400160405280600381526020017f45474700000000000000000000000000000000000000000000000000000000008152506040518060400160405280600981526020017f456767706c616e747300000000000000000000000000000000000000000000008152508160009080519060200190620000ed929190620003d7565b50806001908051906020019062000106929190620003d7565b505050620001296200011d6200019660201b60201c565b6200019e60201b60201c565b6200013e6000801b336200026460201b60201c565b620001707f9f2df0fed2c77648de5860a4cc508cd0818c85b8b8a1ab4ceeef8d981c8956a6336200026460201b60201c565b6200018760086200035660201b620010ea1760201c565b80608081815250505062000553565b600033905090565b6000600660009054906101000a900473ffffffffffffffffffffffffffffffffffffffff16905081600660006101000a81548173ffffffffffffffffffffffffffffffffffffffff021916908373ffffffffffffffffffffffffffffffffffffffff1602179055508173ffffffffffffffffffffffffffffffffffffffff168173ffffffffffffffffffffffffffffffffffffffff167f8be0079c531659141344cd1fd0a4f28419497f9722a3daafe3b4186f6b6457e060405160405180910390a35050565b6200027682826200036c60201b60201c565b620003525760016007600084815260200190815260200160002060000160008373ffffffffffffffffffffffffffffffffffffffff1673ffffffffffffffffffffffffffffffffffffffff16815260200190815260200160002060006101000a81548160ff021916908315150217905550620002f76200019660201b60201c565b73ffffffffffffffffffffffffffffffffffffffff168173ffffffffffffffffffffffffffffffffffffffff16837f2f8788117e7eff1d82e926ec794901d17c78024a50270940304540a733656f0d60405160405180910390a45b5050565b6001816000016000828254019250508190555050565b60006007600084815260200190815260200160002060000160008373ffffffffffffffffffffffffffffffffffffffff1673ffffffffffffffffffffffffffffffffffffffff16815260200190815260200160002060009054906101000a900460ff16905092915050565b828054620003e590620004d4565b90600052602060002090601f01602090048101928262000409576000855562000455565b82601f106200042457805160ff191683800117855562000455565b8280016001018555821562000455579182015b828111156200045457825182559160200191906001019062000437565b5b50905062000464919062000468565b5090565b5b808211156200048357600081600090555060010162000469565b5090565b600081519050620004988162000539565b92915050565b600060208284031215620004b157600080fd5b6000620004c18482850162000487565b91505092915050565b6000819050919050565b60006002820490506001821680620004ed57607f821691505b602082108114156200050457620005036200050a565b5b50919050565b7f4e487b7100000000000000000000000000000000000000000000000000000000600052602260045260246000fd5b6200054481620004ca565b81146200055057600080fd5b50565b608051613ef76200057660003960008181610fd001526118a80152613ef76000f3fe608060405234801561001057600080fd5b50600436106101cf5760003560e01c806370a0823111610104578063a22cb465116100a2578063d547741f11610071578063d547741f1461052c578063e985e9c514610548578063ebf0c71714610578578063f2fde38b14610596576101cf565b8063a22cb465146104a6578063b88d4fde146104c2578063c87b56dd146104de578063d53913931461050e576101cf565b80638da5cb5b116100de5780638da5cb5b1461041c57806391d148541461043a57806395d89b411461046a578063a217fddf14610488576101cf565b806370a08231146103c6578063715018a6146103f6578063785bb03e14610400576101cf565b80632f2ff15d116101715780634bc261341161014b5780634bc261341461032c5780634c3c383a146103485780636352211e146103785780636c0360eb146103a8576101cf565b80632f2ff15d146102d857806336568abe146102f457806342842e0e14610310576101cf565b8063095ea7b3116101ad578063095ea7b31461025257806323b872dd1461026e578063248a9ca31461028a57806326092b83146102ba576101cf565b806301ffc9a7146101d457806306fdde0314610204578063081812fc14610222575b600080fd5b6101ee60048036038101906101e99190612a2d565b6105b2565b6040516101fb9190613142565b60405180910390f35b61020c6105c4565b6040516102199190613178565b60405180910390f35b61023c60048036038101906102379190612a7f565b610656565b60405161024991906130db565b60405180910390f35b61026c6004803603810190610267919061298c565b6106db565b005b6102886004803603810190610283919061282e565b6107f3565b005b6102a4600480360381019061029f91906129c8565b610853565b6040516102b1919061315d565b60405180910390f35b6102c2610873565b6040516102cf91906133fa565b60405180910390f35b6102f260048036038101906102ed91906129f1565b61089d565b005b61030e600480360381019061030991906129f1565b6108c6565b005b61032a6004803603810190610325919061282e565b610949565b005b61034660048036038101906103419190612aa8565b610969565b005b610362600480360381019061035d919061298c565b610a0b565b60405161036f919061315d565b60405180910390f35b610392600480360381019061038d9190612a7f565b610a46565b60405161039f91906130db565b60405180910390f35b6103b0610af8565b6040516103bd9190613178565b60405180910390f35b6103e060048036038101906103db91906127c9565b610b86565b6040516103ed91906133fa565b60405180910390f35b6103fe610c3e565b005b61041a60048036038101906104159190612934565b610cc6565b005b610424610ccb565b60405161043191906130db565b60405180910390f35b610454600480360381019061044f91906129f1565b610cf5565b6040516104619190613142565b60405180910390f35b610472610d60565b60405161047f9190613178565b60405180910390f35b610490610df2565b60405161049d919061315d565b60405180910390f35b6104c060048036038101906104bb91906128f8565b610df9565b005b6104dc60048036038101906104d7919061287d565b610e0f565b005b6104f860048036038101906104f39190612a7f565b610e71565b6040516105059190613178565b60405180910390f35b610516610eed565b604051610523919061315d565b60405180910390f35b610546600480360381019061054191906129f1565b610f11565b005b610562600480360381019061055d91906127f2565b610f3a565b60405161056f9190613142565b60405180910390f35b610580610fce565b60405161058d919061315d565b60405180910390f35b6105b060048036038101906105ab91906127c9565b610ff2565b005b60006105bd82611100565b9050919050565b6060600080546105d3906136c2565b80601f01602080910402602001604051908101604052809291908181526020018280546105ff906136c2565b801561064c5780601f106106215761010080835404028352916020019161064c565b820191906000526020600020905b81548152906001019060200180831161062f57829003601f168201915b5050505050905090565b60006106618261117a565b6106a0576040517f08c379a00000000000000000000000000000000000000000000000000000000081526004016106979061331a565b60405180910390fd5b6004600083815260200190815260200160002060009054906101000a900473ffffffffffffffffffffffffffffffffffffffff169050919050565b60006106e682610a46565b90508073ffffffffffffffffffffffffffffffffffffffff168373ffffffffffffffffffffffffffffffffffffffff161415610757576040517f08c379a000000000000000000000000000000000000000000000000000000000815260040161074e9061339a565b60405180910390fd5b8073ffffffffffffffffffffffffffffffffffffffff166107766111e6565b73ffffffffffffffffffffffffffffffffffffffff1614806107a557506107a48161079f6111e6565b610f3a565b5b6107e4576040517f08c379a00000000000000000000000000000000000000000000000000000000081526004016107db9061327a565b60405180910390fd5b6107ee83836111ee565b505050565b6108046107fe6111e6565b826112a7565b610843576040517f08c379a000000000000000000000000000000000000000000000000000000000815260040161083a906133ba565b60405180910390fd5b61084e838383611385565b505050565b600060076000838152602001908152602001600020600101549050919050565b60008061088060086115e1565b905061088c60086110ea565b61089633826115ef565b8091505090565b6108a682610853565b6108b7816108b26111e6565b61160d565b6108c183836116aa565b505050565b6108ce6111e6565b73ffffffffffffffffffffffffffffffffffffffff168173ffffffffffffffffffffffffffffffffffffffff161461093b576040517f08c379a0000000000000000000000000000000000000000000000000000000008152600401610932906133da565b60405180910390fd5b610945828261178b565b5050565b61096483838360405180602001604052806000815250610e0f565b505050565b6109bd610976338561186d565b838380806020026020016040519081016040528093929190818152602001838360200280828437600081840152601f19601f820116905080830192505050505050506118a0565b6109fc576040517f08c379a00000000000000000000000000000000000000000000000000000000081526004016109f39061335a565b60405180910390fd5b610a0633846115ef565b505050565b6000610a3e8383604051602001610a23929190612fc8565b604051602081830303815290604052805190602001206118d5565b905092915050565b6000806002600084815260200190815260200160002060009054906101000a900473ffffffffffffffffffffffffffffffffffffffff169050600073ffffffffffffffffffffffffffffffffffffffff168173ffffffffffffffffffffffffffffffffffffffff161415610aef576040517f08c379a0000000000000000000000000000000000000000000000000000000008152600401610ae6906132ba565b60405180910390fd5b80915050919050565b60098054610b05906136c2565b80601f0160208091040260200160405190810160405280929190818152602001828054610b31906136c2565b8015610b7e5780601f10610b5357610100808354040283529160200191610b7e565b820191906000526020600020905b815481529060010190602001808311610b6157829003601f168201915b505050505081565b60008073ffffffffffffffffffffffffffffffffffffffff168273ffffffffffffffffffffffffffffffffffffffff161415610bf7576040517f08c379a0000000000000000000000000000000000000000000000000000000008152600401610bee9061329a565b60405180910390fd5b600360008373ffffffffffffffffffffffffffffffffffffffff1673ffffffffffffffffffffffffffffffffffffffff168152602001908152602001600020549050919050565b610c466111e6565b73ffffffffffffffffffffffffffffffffffffffff16610c64610ccb565b73ffffffffffffffffffffffffffffffffffffffff1614610cba576040517f08c379a0000000000000000000000000000000000000000000000000000000008152600401610cb19061333a565b60405180910390fd5b610cc46000611905565b565b505050565b6000600660009054906101000a900473ffffffffffffffffffffffffffffffffffffffff16905090565b60006007600084815260200190815260200160002060000160008373ffffffffffffffffffffffffffffffffffffffff1673ffffffffffffffffffffffffffffffffffffffff16815260200190815260200160002060009054906101000a900460ff16905092915050565b606060018054610d6f906136c2565b80601f0160208091040260200160405190810160405280929190818152602001828054610d9b906136c2565b8015610de85780601f10610dbd57610100808354040283529160200191610de8565b820191906000526020600020905b815481529060010190602001808311610dcb57829003601f168201915b5050505050905090565b6000801b81565b610e0b610e046111e6565b83836119cb565b5050565b610e20610e1a6111e6565b836112a7565b610e5f576040517f08c379a0000000000000000000000000000000000000000000000000000000008152600401610e56906133ba565b60405180910390fd5b610e6b84848484611b38565b50505050565b6060610e7c8261117a565b610ebb576040517f08c379a0000000000000000000000000000000000000000000000000000000008152600401610eb2906132fa565b60405180910390fd5b6009610ec683611b94565b604051602001610ed7929190613020565b6040516020818303038152906040529050919050565b7f9f2df0fed2c77648de5860a4cc508cd0818c85b8b8a1ab4ceeef8d981c8956a681565b610f1a82610853565b610f2b81610f266111e6565b61160d565b610f35838361178b565b505050565b6000600560008473ffffffffffffffffffffffffffffffffffffffff1673ffffffffffffffffffffffffffffffffffffffff16815260200190815260200160002060008373ffffffffffffffffffffffffffffffffffffffff1673ffffffffffffffffffffffffffffffffffffffff16815260200190815260200160002060009054906101000a900460ff16905092915050565b7f000000000000000000000000000000000000000000000000000000000000000081565b610ffa6111e6565b73ffffffffffffffffffffffffffffffffffffffff16611018610ccb565b73ffffffffffffffffffffffffffffffffffffffff161461106e576040517f08c379a00000000000000000000000000000000000000000000000000000000081526004016110659061333a565b60405180910390fd5b600073ffffffffffffffffffffffffffffffffffffffff168173ffffffffffffffffffffffffffffffffffffffff1614156110de576040517f08c379a00000000000000000000000000000000000000000000000000000000081526004016110d5906131da565b60405180910390fd5b6110e781611905565b50565b6001816000016000828254019250508190555050565b60007f7965db0b000000000000000000000000000000000000000000000000000000007bffffffffffffffffffffffffffffffffffffffffffffffffffffffff1916827bffffffffffffffffffffffffffffffffffffffffffffffffffffffff19161480611173575061117282611d41565b5b9050919050565b60008073ffffffffffffffffffffffffffffffffffffffff166002600084815260200190815260200160002060009054906101000a900473ffffffffffffffffffffffffffffffffffffffff1673ffffffffffffffffffffffffffffffffffffffff1614159050919050565b600033905090565b816004600083815260200190815260200160002060006101000a81548173ffffffffffffffffffffffffffffffffffffffff021916908373ffffffffffffffffffffffffffffffffffffffff160217905550808273ffffffffffffffffffffffffffffffffffffffff1661126183610a46565b73ffffffffffffffffffffffffffffffffffffffff167f8c5be1e5ebec7d5bd14f71427d1e84f3dd0314c0f7b2291e5b200ac8c7c3b92560405160405180910390a45050565b60006112b28261117a565b6112f1576040517f08c379a00000000000000000000000000000000000000000000000000000000081526004016112e89061325a565b60405180910390fd5b60006112fc83610a46565b90508073ffffffffffffffffffffffffffffffffffffffff168473ffffffffffffffffffffffffffffffffffffffff16148061136b57508373ffffffffffffffffffffffffffffffffffffffff1661135384610656565b73ffffffffffffffffffffffffffffffffffffffff16145b8061137c575061137b8185610f3a565b5b91505092915050565b8273ffffffffffffffffffffffffffffffffffffffff166113a582610a46565b73ffffffffffffffffffffffffffffffffffffffff16146113fb576040517f08c379a00000000000000000000000000000000000000000000000000000000081526004016113f29061337a565b60405180910390fd5b600073ffffffffffffffffffffffffffffffffffffffff168273ffffffffffffffffffffffffffffffffffffffff16141561146b576040517f08c379a00000000000000000000000000000000000000000000000000000000081526004016114629061321a565b60405180910390fd5b611476838383611e23565b6114816000826111ee565b6001600360008573ffffffffffffffffffffffffffffffffffffffff1673ffffffffffffffffffffffffffffffffffffffff16815260200190815260200160002060008282546114d191906135a4565b925050819055506001600360008473ffffffffffffffffffffffffffffffffffffffff1673ffffffffffffffffffffffffffffffffffffffff168152602001908152602001600020600082825461152891906134c3565b92505081905550816002600083815260200190815260200160002060006101000a81548173ffffffffffffffffffffffffffffffffffffffff021916908373ffffffffffffffffffffffffffffffffffffffff160217905550808273ffffffffffffffffffffffffffffffffffffffff168473ffffffffffffffffffffffffffffffffffffffff167fddf252ad1be2c89b69c2b068fc378daa952ba7f163c4a11628f55a4df523b3ef60405160405180910390a4505050565b600081600001549050919050565b611609828260405180602001604052806000815250611e28565b5050565b6116178282610cf5565b6116a65761163c8173ffffffffffffffffffffffffffffffffffffffff166014611e83565b61164a8360001c6020611e83565b60405160200161165b929190613075565b6040516020818303038152906040526040517f08c379a000000000000000000000000000000000000000000000000000000000815260040161169d9190613178565b60405180910390fd5b5050565b6116b48282610cf5565b6117875760016007600084815260200190815260200160002060000160008373ffffffffffffffffffffffffffffffffffffffff1673ffffffffffffffffffffffffffffffffffffffff16815260200190815260200160002060006101000a81548160ff02191690831515021790555061172c6111e6565b73ffffffffffffffffffffffffffffffffffffffff168173ffffffffffffffffffffffffffffffffffffffff16837f2f8788117e7eff1d82e926ec794901d17c78024a50270940304540a733656f0d60405160405180910390a45b5050565b6117958282610cf5565b156118695760006007600084815260200190815260200160002060000160008373ffffffffffffffffffffffffffffffffffffffff1673ffffffffffffffffffffffffffffffffffffffff16815260200190815260200160002060006101000a81548160ff02191690831515021790555061180e6111e6565b73ffffffffffffffffffffffffffffffffffffffff168173ffffffffffffffffffffffffffffffffffffffff16837ff6391f5c32d9c69d2a47ea670b442974b53935d1edc7fd64eb21e047a839171b60405160405180910390a45b5050565b600081836040516020016118829291906130af565b60405160208183030381529060405280519060200120905092915050565b60006118cd827f00000000000000000000000000000000000000000000000000000000000000008561217d565b905092915050565b6000816040516020016118e8919061304f565b604051602081830303815290604052805190602001209050919050565b6000600660009054906101000a900473ffffffffffffffffffffffffffffffffffffffff16905081600660006101000a81548173ffffffffffffffffffffffffffffffffffffffff021916908373ffffffffffffffffffffffffffffffffffffffff1602179055508173ffffffffffffffffffffffffffffffffffffffff168173ffffffffffffffffffffffffffffffffffffffff167f8be0079c531659141344cd1fd0a4f28419497f9722a3daafe3b4186f6b6457e060405160405180910390a35050565b8173ffffffffffffffffffffffffffffffffffffffff168373ffffffffffffffffffffffffffffffffffffffff161415611a3a576040517f08c379a0000000000000000000000000000000000000000000000000000000008152600401611a319061323a565b60405180910390fd5b80600560008573ffffffffffffffffffffffffffffffffffffffff1673ffffffffffffffffffffffffffffffffffffffff16815260200190815260200160002060008473ffffffffffffffffffffffffffffffffffffffff1673ffffffffffffffffffffffffffffffffffffffff16815260200190815260200160002060006101000a81548160ff0219169083151502179055508173ffffffffffffffffffffffffffffffffffffffff168373ffffffffffffffffffffffffffffffffffffffff167f17307eab39ab6107e8899845ad3d59bd9653f200f220920489ca2b5937696c3183604051611b2b9190613142565b60405180910390a3505050565b611b43848484611385565b611b4f84848484612194565b611b8e576040517f08c379a0000000000000000000000000000000000000000000000000000000008152600401611b85906131ba565b60405180910390fd5b50505050565b60606000821415611bdc576040518060400160405280600181526020017f30000000000000000000000000000000000000000000000000000000000000008152509050611d3c565b600082905060005b60008214611c0e578080611bf790613725565b915050600a82611c079190613519565b9150611be4565b60008167ffffffffffffffff811115611c50577f4e487b7100000000000000000000000000000000000000000000000000000000600052604160045260246000fd5b6040519080825280601f01601f191660200182016040528015611c825781602001600182028036833780820191505090505b5090505b60008514611d3557600182611c9b91906135a4565b9150600a85611caa91906137a6565b6030611cb691906134c3565b60f81b818381518110611cf2577f4e487b7100000000000000000000000000000000000000000000000000000000600052603260045260246000fd5b60200101907effffffffffffffffffffffffffffffffffffffffffffffffffffffffffffff1916908160001a905350600a85611d2e9190613519565b9450611c86565b8093505050505b919050565b60007f80ac58cd000000000000000000000000000000000000000000000000000000007bffffffffffffffffffffffffffffffffffffffffffffffffffffffff1916827bffffffffffffffffffffffffffffffffffffffffffffffffffffffff19161480611e0c57507f5b5e139f000000000000000000000000000000000000000000000000000000007bffffffffffffffffffffffffffffffffffffffffffffffffffffffff1916827bffffffffffffffffffffffffffffffffffffffffffffffffffffffff1916145b80611e1c5750611e1b8261232b565b5b9050919050565b505050565b611e328383612395565b611e3f6000848484612194565b611e7e576040517f08c379a0000000000000000000000000000000000000000000000000000000008152600401611e75906131ba565b60405180910390fd5b505050565b606060006002836002611e96919061354a565b611ea091906134c3565b67ffffffffffffffff811115611edf577f4e487b7100000000000000000000000000000000000000000000000000000000600052604160045260246000fd5b6040519080825280601f01601f191660200182016040528015611f115781602001600182028036833780820191505090505b5090507f300000000000000000000000000000000000000000000000000000000000000081600081518110611f6f577f4e487b7100000000000000000000000000000000000000000000000000000000600052603260045260246000fd5b60200101907effffffffffffffffffffffffffffffffffffffffffffffffffffffffffffff1916908160001a9053507f780000000000000000000000000000000000000000000000000000000000000081600181518110611ff9577f4e487b7100000000000000000000000000000000000000000000000000000000600052603260045260246000fd5b60200101907effffffffffffffffffffffffffffffffffffffffffffffffffffffffffffff1916908160001a90535060006001846002612039919061354a565b61204391906134c3565b90505b600181111561212f577f3031323334353637383961626364656600000000000000000000000000000000600f8616601081106120ab577f4e487b7100000000000000000000000000000000000000000000000000000000600052603260045260246000fd5b1a60f81b8282815181106120e8577f4e487b7100000000000000000000000000000000000000000000000000000000600052603260045260246000fd5b60200101907effffffffffffffffffffffffffffffffffffffffffffffffffffffffffffff1916908160001a905350600485901c94508061212890613698565b9050612046565b5060008414612173576040517f08c379a000000000000000000000000000000000000000000000000000000000815260040161216a9061319a565b60405180910390fd5b8091505092915050565b60008261218a8584612563565b1490509392505050565b60006121b58473ffffffffffffffffffffffffffffffffffffffff1661263c565b1561231e578373ffffffffffffffffffffffffffffffffffffffff1663150b7a026121de6111e6565b8786866040518563ffffffff1660e01b815260040161220094939291906130f6565b602060405180830381600087803b15801561221a57600080fd5b505af192505050801561224b57506040513d601f19601f820116820180604052508101906122489190612a56565b60015b6122ce573d806000811461227b576040519150601f19603f3d011682016040523d82523d6000602084013e612280565b606091505b506000815114156122c6576040517f08c379a00000000000000000000000000000000000000000000000000000000081526004016122bd906131ba565b60405180910390fd5b805181602001fd5b63150b7a0260e01b7bffffffffffffffffffffffffffffffffffffffffffffffffffffffff1916817bffffffffffffffffffffffffffffffffffffffffffffffffffffffff191614915050612323565b600190505b949350505050565b60007f01ffc9a7000000000000000000000000000000000000000000000000000000007bffffffffffffffffffffffffffffffffffffffffffffffffffffffff1916827bffffffffffffffffffffffffffffffffffffffffffffffffffffffff1916149050919050565b600073ffffffffffffffffffffffffffffffffffffffff168273ffffffffffffffffffffffffffffffffffffffff161415612405576040517f08c379a00000000000000000000000000000000000000000000000000000000081526004016123fc906132da565b60405180910390fd5b61240e8161117a565b1561244e576040517f08c379a0000000000000000000000000000000000000000000000000000000008152600401612445906131fa565b60405180910390fd5b61245a60008383611e23565b6001600360008473ffffffffffffffffffffffffffffffffffffffff1673ffffffffffffffffffffffffffffffffffffffff16815260200190815260200160002060008282546124aa91906134c3565b92505081905550816002600083815260200190815260200160002060006101000a81548173ffffffffffffffffffffffffffffffffffffffff021916908373ffffffffffffffffffffffffffffffffffffffff160217905550808273ffffffffffffffffffffffffffffffffffffffff16600073ffffffffffffffffffffffffffffffffffffffff167fddf252ad1be2c89b69c2b068fc378daa952ba7f163c4a11628f55a4df523b3ef60405160405180910390a45050565b60008082905060005b84518110156126315760008582815181106125b0577f4e487b7100000000000000000000000000000000000000000000000000000000600052603260045260246000fd5b602002602001015190508083116125f15782816040516020016125d4929190612ff4565b60405160208183030381529060405280519060200120925061261d565b8083604051602001612604929190612ff4565b6040516020818303038152906040528051906020012092505b50808061262990613725565b91505061256c565b508091505092915050565b600080823b905060008111915050919050565b600061266261265d8461343a565b613415565b90508281526020810184848401111561267a57600080fd5b612685848285613656565b509392505050565b60008135905061269c81613e4e565b92915050565b60008083601f8401126126b457600080fd5b8235905067ffffffffffffffff8111156126cd57600080fd5b6020830191508360208202830111156126e557600080fd5b9250929050565b6000813590506126fb81613e65565b92915050565b60008135905061271081613e7c565b92915050565b60008135905061272581613e93565b92915050565b60008151905061273a81613e93565b92915050565b60008083601f84011261275257600080fd5b8235905067ffffffffffffffff81111561276b57600080fd5b60208301915083600182028301111561278357600080fd5b9250929050565b600082601f83011261279b57600080fd5b81356127ab84826020860161264f565b91505092915050565b6000813590506127c381613eaa565b92915050565b6000602082840312156127db57600080fd5b60006127e98482850161268d565b91505092915050565b6000806040838503121561280557600080fd5b60006128138582860161268d565b92505060206128248582860161268d565b9150509250929050565b60008060006060848603121561284357600080fd5b60006128518682870161268d565b93505060206128628682870161268d565b9250506040612873868287016127b4565b9150509250925092565b6000806000806080858703121561289357600080fd5b60006128a18782880161268d565b94505060206128b28782880161268d565b93505060406128c3878288016127b4565b925050606085013567ffffffffffffffff8111156128e057600080fd5b6128ec8782880161278a565b91505092959194509250565b6000806040838503121561290b57600080fd5b60006129198582860161268d565b925050602061292a858286016126ec565b9150509250929050565b60008060006040848603121561294957600080fd5b60006129578682870161268d565b935050602084013567ffffffffffffffff81111561297457600080fd5b61298086828701612740565b92509250509250925092565b6000806040838503121561299f57600080fd5b60006129ad8582860161268d565b92505060206129be858286016127b4565b9150509250929050565b6000602082840312156129da57600080fd5b60006129e884828501612701565b91505092915050565b60008060408385031215612a0457600080fd5b6000612a1285828601612701565b9250506020612a238582860161268d565b9150509250929050565b600060208284031215612a3f57600080fd5b6000612a4d84828501612716565b91505092915050565b600060208284031215612a6857600080fd5b6000612a768482850161272b565b91505092915050565b600060208284031215612a9157600080fd5b6000612a9f848285016127b4565b91505092915050565b600080600060408486031215612abd57600080fd5b6000612acb868287016127b4565b935050602084013567ffffffffffffffff811115612ae857600080fd5b612af4868287016126a2565b92509250509250925092565b612b09816135d8565b82525050565b612b20612b1b826135d8565b61376e565b82525050565b612b2f816135ea565b82525050565b612b3e816135f6565b82525050565b612b55612b50826135f6565b613780565b82525050565b6000612b6682613480565b612b708185613496565b9350612b80818560208601613665565b612b8981613893565b840191505092915050565b6000612b9f8261348b565b612ba981856134a7565b9350612bb9818560208601613665565b612bc281613893565b840191505092915050565b6000612bd88261348b565b612be281856134b8565b9350612bf2818560208601613665565b80840191505092915050565b60008154612c0b816136c2565b612c1581866134b8565b94506001821660008114612c305760018114612c4157612c74565b60ff19831686528186019350612c74565b612c4a8561346b565b60005b83811015612c6c57815481890152600182019150602081019050612c4d565b838801955050505b50505092915050565b6000612c8a6020836134a7565b9150612c95826138b1565b602082019050919050565b6000612cad601c836134b8565b9150612cb8826138da565b601c82019050919050565b6000612cd06032836134a7565b9150612cdb82613903565b604082019050919050565b6000612cf36026836134a7565b9150612cfe82613952565b604082019050919050565b6000612d16601c836134a7565b9150612d21826139a1565b602082019050919050565b6000612d396024836134a7565b9150612d44826139ca565b604082019050919050565b6000612d5c6019836134a7565b9150612d6782613a19565b602082019050919050565b6000612d7f602c836134a7565b9150612d8a82613a42565b604082019050919050565b6000612da26038836134a7565b9150612dad82613a91565b604082019050919050565b6000612dc5602a836134a7565b9150612dd082613ae0565b604082019050919050565b6000612de86029836134a7565b9150612df382613b2f565b604082019050919050565b6000612e0b6020836134a7565b9150612e1682613b7e565b602082019050919050565b6000612e2e602b836134a7565b9150612e3982613ba7565b604082019050919050565b6000612e51602c836134a7565b9150612e5c82613bf6565b604082019050919050565b6000612e746005836134b8565b9150612e7f82613c45565b600582019050919050565b6000612e976020836134a7565b9150612ea282613c6e565b602082019050919050565b6000612eba6014836134a7565b9150612ec582613c97565b602082019050919050565b6000612edd6029836134a7565b9150612ee882613cc0565b604082019050919050565b6000612f006021836134a7565b9150612f0b82613d0f565b604082019050919050565b6000612f236031836134a7565b9150612f2e82613d5e565b604082019050919050565b6000612f466017836134b8565b9150612f5182613dad565b601782019050919050565b6000612f696011836134b8565b9150612f7482613dd6565b601182019050919050565b6000612f8c602f836134a7565b9150612f9782613dff565b604082019050919050565b612fab8161364c565b82525050565b612fc2612fbd8261364c565b61379c565b82525050565b6000612fd48285612b0f565b601482019150612fe48284612fb1565b6020820191508190509392505050565b60006130008285612b44565b6020820191506130108284612b44565b6020820191508190509392505050565b600061302c8285612bfe565b91506130388284612bcd565b915061304382612e67565b91508190509392505050565b600061305a82612ca0565b91506130668284612b44565b60208201915081905092915050565b600061308082612f39565b915061308c8285612bcd565b915061309782612f5c565b91506130a38284612bcd565b91508190509392505050565b60006130bb8285612fb1565b6020820191506130cb8284612b0f565b6014820191508190509392505050565b60006020820190506130f06000830184612b00565b92915050565b600060808201905061310b6000830187612b00565b6131186020830186612b00565b6131256040830185612fa2565b81810360608301526131378184612b5b565b905095945050505050565b60006020820190506131576000830184612b26565b92915050565b60006020820190506131726000830184612b35565b92915050565b600060208201905081810360008301526131928184612b94565b905092915050565b600060208201905081810360008301526131b381612c7d565b9050919050565b600060208201905081810360008301526131d381612cc3565b9050919050565b600060208201905081810360008301526131f381612ce6565b9050919050565b6000602082019050818103600083015261321381612d09565b9050919050565b6000602082019050818103600083015261323381612d2c565b9050919050565b6000602082019050818103600083015261325381612d4f565b9050919050565b6000602082019050818103600083015261327381612d72565b9050919050565b6000602082019050818103600083015261329381612d95565b9050919050565b600060208201905081810360008301526132b381612db8565b9050919050565b600060208201905081810360008301526132d381612ddb565b9050919050565b600060208201905081810360008301526132f381612dfe565b9050919050565b6000602082019050818103600083015261331381612e21565b9050919050565b6000602082019050818103600083015261333381612e44565b9050919050565b6000602082019050818103600083015261335381612e8a565b9050919050565b6000602082019050818103600083015261337381612ead565b9050919050565b6000602082019050818103600083015261339381612ed0565b9050919050565b600060208201905081810360008301526133b381612ef3565b9050919050565b600060208201905081810360008301526133d381612f16565b9050919050565b600060208201905081810360008301526133f381612f7f565b9050919050565b600060208201905061340f6000830184612fa2565b92915050565b600061341f613430565b905061342b82826136f4565b919050565b6000604051905090565b600067ffffffffffffffff82111561345557613454613864565b5b61345e82613893565b9050602081019050919050565b60008190508160005260206000209050919050565b600081519050919050565b600081519050919050565b600082825260208201905092915050565b600082825260208201905092915050565b600081905092915050565b60006134ce8261364c565b91506134d98361364c565b9250827fffffffffffffffffffffffffffffffffffffffffffffffffffffffffffffffff0382111561350e5761350d6137d7565b5b828201905092915050565b60006135248261364c565b915061352f8361364c565b92508261353f5761353e613806565b5b828204905092915050565b60006135558261364c565b91506135608361364c565b9250817fffffffffffffffffffffffffffffffffffffffffffffffffffffffffffffffff0483118215151615613599576135986137d7565b5b828202905092915050565b60006135af8261364c565b91506135ba8361364c565b9250828210156135cd576135cc6137d7565b5b828203905092915050565b60006135e38261362c565b9050919050565b60008115159050919050565b6000819050919050565b60007fffffffff0000000000000000000000000000000000000000000000000000000082169050919050565b600073ffffffffffffffffffffffffffffffffffffffff82169050919050565b6000819050919050565b82818337600083830152505050565b60005b83811015613683578082015181840152602081019050613668565b83811115613692576000848401525b50505050565b60006136a38261364c565b915060008214156136b7576136b66137d7565b5b600182039050919050565b600060028204905060018216806136da57607f821691505b602082108114156136ee576136ed613835565b5b50919050565b6136fd82613893565b810181811067ffffffffffffffff8211171561371c5761371b613864565b5b80604052505050565b60006137308261364c565b91507fffffffffffffffffffffffffffffffffffffffffffffffffffffffffffffffff821415613763576137626137d7565b5b600182019050919050565b60006137798261378a565b9050919050565b6000819050919050565b6000613795826138a4565b9050919050565b6000819050919050565b60006137b18261364c565b91506137bc8361364c565b9250826137cc576137cb613806565b5b828206905092915050565b7f4e487b7100000000000000000000000000000000000000000000000000000000600052601160045260246000fd5b7f4e487b7100000000000000000000000000000000000000000000000000000000600052601260045260246000fd5b7f4e487b7100000000000000000000000000000000000000000000000000000000600052602260045260246000fd5b7f4e487b7100000000000000000000000000000000000000000000000000000000600052604160045260246000fd5b6000601f19601f8301169050919050565b60008160601b9050919050565b7f537472696e67733a20686578206c656e67746820696e73756666696369656e74600082015250565b7f19457468657265756d205369676e6564204d6573736167653a0a333200000000600082015250565b7f4552433732313a207472616e7366657220746f206e6f6e20455243373231526560008201527f63656976657220696d706c656d656e7465720000000000000000000000000000602082015250565b7f4f776e61626c653a206e6577206f776e657220697320746865207a65726f206160008201527f6464726573730000000000000000000000000000000000000000000000000000602082015250565b7f4552433732313a20746f6b656e20616c7265616479206d696e74656400000000600082015250565b7f4552433732313a207472616e7366657220746f20746865207a65726f2061646460008201527f7265737300000000000000000000000000000000000000000000000000000000602082015250565b7f4552433732313a20617070726f766520746f2063616c6c657200000000000000600082015250565b7f4552433732313a206f70657261746f7220717565727920666f72206e6f6e657860008201527f697374656e7420746f6b656e0000000000000000000000000000000000000000602082015250565b7f4552433732313a20617070726f76652063616c6c6572206973206e6f74206f7760008201527f6e6572206e6f7220617070726f76656420666f7220616c6c0000000000000000602082015250565b7f4552433732313a2062616c616e636520717565727920666f7220746865207a6560008201527f726f206164647265737300000000000000000000000000000000000000000000602082015250565b7f4552433732313a206f776e657220717565727920666f72206e6f6e657869737460008201527f656e7420746f6b656e0000000000000000000000000000000000000000000000602082015250565b7f4552433732313a206d696e7420746f20746865207a65726f2061646472657373600082015250565b7f4552433732314d657461646174613a20717565727920666f72206e6f6e65786960008201527f7374656e7420746f6b656e000000000000000000000000000000000000000000602082015250565b7f4552433732313a20617070726f76656420717565727920666f72206e6f6e657860008201527f697374656e7420746f6b656e0000000000000000000000000000000000000000602082015250565b7f2e6a736f6e000000000000000000000000000000000000000000000000000000600082015250565b7f4f776e61626c653a2063616c6c6572206973206e6f7420746865206f776e6572600082015250565b7f496e76616c6964206d65726b6c652070726f6f66000000000000000000000000600082015250565b7f4552433732313a207472616e73666572206f6620746f6b656e2074686174206960008201527f73206e6f74206f776e0000000000000000000000000000000000000000000000602082015250565b7f4552433732313a20617070726f76616c20746f2063757272656e74206f776e6560008201527f7200000000000000000000000000000000000000000000000000000000000000602082015250565b7f4552433732313a207472616e736665722063616c6c6572206973206e6f74206f60008201527f776e6572206e6f7220617070726f766564000000000000000000000000000000602082015250565b7f416363657373436f6e74726f6c3a206163636f756e7420000000000000000000600082015250565b7f206973206d697373696e6720726f6c6520000000000000000000000000000000600082015250565b7f416363657373436f6e74726f6c3a2063616e206f6e6c792072656e6f756e636560008201527f20726f6c657320666f722073656c660000000000000000000000000000000000602082015250565b613e57816135d8565b8114613e6257600080fd5b50565b613e6e816135ea565b8114613e7957600080fd5b50565b613e85816135f6565b8114613e9057600080fd5b50565b613e9c81613600565b8114613ea757600080fd5b50565b613eb38161364c565b8114613ebe57600080fd5b5056fea26469706673582212207c2b70a7ddf3000ecd16a9450dd5703733380d6c10db2087eae3d7bdf57e170164736f6c6343000804003368747470733a2f2f676174657761792e70696e6174612e636c6f75642f697066732f",
  "linkReferences": {},
  "deployedLinkReferences": {}
}