{
  "_format": "hh-sol-artifact-1",
  "contractName": "Eggie",
  "sourceName": "contracts/Eggie.sol",
  "abi": [
    {
      "inputs": [],
      "stateMutability": "nonpayable",
      "type": "constructor"
    },
    {
      "anonymous": false,
      "inputs": [
        {
          "indexed": true,
          "internalType": "address",
          "name": "owner",
          "type": "address"
        },
        {
          "indexed": true,
          "internalType": "address",
          "name": "approved",
          "type": "address"
        },
        {
          "indexed": true,
          "internalType": "uint256",
          "name": "tokenId",
          "type": "uint256"
        }
      ],
      "name": "Approval",
      "type": "event"
    },
    {
      "anonymous": false,
      "inputs": [
        {
          "indexed": true,
          "internalType": "address",
          "name": "owner",
          "type": "address"
        },
        {
          "indexed": true,
          "internalType": "address",
          "name": "operator",
          "type": "address"
        },
        {
          "indexed": false,
          "internalType": "bool",
          "name": "approved",
          "type": "bool"
        }
      ],
      "name": "ApprovalForAll",
      "type": "event"
    },
    {
      "anonymous": false,
      "inputs": [
        {
          "indexed": true,
          "internalType": "address",
          "name": "previousOwner",
          "type": "address"
        },
        {
          "indexed": true,
          "internalType": "address",
          "name": "newOwner",
          "type": "address"
        }
      ],
      "name": "OwnershipTransferred",
      "type": "event"
    },
    {
      "anonymous": false,
      "inputs": [
        {
          "indexed": true,
          "internalType": "bytes32",
          "name": "role",
          "type": "bytes32"
        },
        {
          "indexed": true,
          "internalType": "bytes32",
          "name": "previousAdminRole",
          "type": "bytes32"
        },
        {
          "indexed": true,
          "internalType": "bytes32",
          "name": "newAdminRole",
          "type": "bytes32"
        }
      ],
      "name": "RoleAdminChanged",
      "type": "event"
    },
    {
      "anonymous": false,
      "inputs": [
        {
          "indexed": true,
          "internalType": "bytes32",
          "name": "role",
          "type": "bytes32"
        },
        {
          "indexed": true,
          "internalType": "address",
          "name": "account",
          "type": "address"
        },
        {
          "indexed": true,
          "internalType": "address",
          "name": "sender",
          "type": "address"
        }
      ],
      "name": "RoleGranted",
      "type": "event"
    },
    {
      "anonymous": false,
      "inputs": [
        {
          "indexed": true,
          "internalType": "bytes32",
          "name": "role",
          "type": "bytes32"
        },
        {
          "indexed": true,
          "internalType": "address",
          "name": "account",
          "type": "address"
        },
        {
          "indexed": true,
          "internalType": "address",
          "name": "sender",
          "type": "address"
        }
      ],
      "name": "RoleRevoked",
      "type": "event"
    },
    {
      "anonymous": false,
      "inputs": [
        {
          "indexed": true,
          "internalType": "address",
          "name": "from",
          "type": "address"
        },
        {
          "indexed": true,
          "internalType": "address",
          "name": "to",
          "type": "address"
        },
        {
          "indexed": true,
          "internalType": "uint256",
          "name": "tokenId",
          "type": "uint256"
        }
      ],
      "name": "Transfer",
      "type": "event"
    },
    {
      "inputs": [],
      "name": "DEFAULT_ADMIN_ROLE",
      "outputs": [
        {
          "internalType": "bytes32",
          "name": "",
          "type": "bytes32"
        }
      ],
      "stateMutability": "view",
      "type": "function"
    },
    {
      "inputs": [],
      "name": "MINTER_ROLE",
      "outputs": [
        {
          "internalType": "bytes32",
          "name": "",
          "type": "bytes32"
        }
      ],
      "stateMutability": "view",
      "type": "function"
    },
    {
      "inputs": [
        {
          "internalType": "address",
          "name": "account",
          "type": "address"
        },
        {
          "internalType": "uint256",
          "name": "tokenId",
          "type": "uint256"
        }
      ],
      "name": "_hash",
      "outputs": [
        {
          "internalType": "bytes32",
          "name": "",
          "type": "bytes32"
        }
      ],
      "stateMutability": "pure",
      "type": "function"
    },
    {
      "inputs": [
        {
          "internalType": "address",
          "name": "to",
          "type": "address"
        },
        {
          "internalType": "uint256",
          "name": "tokenId",
          "type": "uint256"
        }
      ],
      "name": "approve",
      "outputs": [],
      "stateMutability": "nonpayable",
      "type": "function"
    },
    {
      "inputs": [
        {
          "internalType": "address",
          "name": "owner",
          "type": "address"
        }
      ],
      "name": "balanceOf",
      "outputs": [
        {
          "internalType": "uint256",
          "name": "",
          "type": "uint256"
        }
      ],
      "stateMutability": "view",
      "type": "function"
    },
    {
      "inputs": [],
      "name": "baseURI",
      "outputs": [
        {
          "internalType": "string",
          "name": "",
          "type": "string"
        }
      ],
      "stateMutability": "view",
      "type": "function"
    },
    {
      "inputs": [
        {
          "internalType": "uint256",
          "name": "tokenId",
          "type": "uint256"
        }
      ],
      "name": "getApproved",
      "outputs": [
        {
          "internalType": "address",
          "name": "",
          "type": "address"
        }
      ],
      "stateMutability": "view",
      "type": "function"
    },
    {
      "inputs": [
        {
          "internalType": "bytes32",
          "name": "role",
          "type": "bytes32"
        }
      ],
      "name": "getRoleAdmin",
      "outputs": [
        {
          "internalType": "bytes32",
          "name": "",
          "type": "bytes32"
        }
      ],
      "stateMutability": "view",
      "type": "function"
    },
    {
      "inputs": [
        {
          "internalType": "bytes32",
          "name": "role",
          "type": "bytes32"
        },
        {
          "internalType": "address",
          "name": "account",
          "type": "address"
        }
      ],
      "name": "grantRole",
      "outputs": [],
      "stateMutability": "nonpayable",
      "type": "function"
    },
    {
      "inputs": [
        {
          "internalType": "bytes32",
          "name": "role",
          "type": "bytes32"
        },
        {
          "internalType": "address",
          "name": "account",
          "type": "address"
        }
      ],
      "name": "hasRole",
      "outputs": [
        {
          "internalType": "bool",
          "name": "",
          "type": "bool"
        }
      ],
      "stateMutability": "view",
      "type": "function"
    },
    {
      "inputs": [
        {
          "internalType": "address",
          "name": "owner",
          "type": "address"
        },
        {
          "internalType": "address",
          "name": "operator",
          "type": "address"
        }
      ],
      "name": "isApprovedForAll",
      "outputs": [
        {
          "internalType": "bool",
          "name": "",
          "type": "bool"
        }
      ],
      "stateMutability": "view",
      "type": "function"
    },
    {
      "inputs": [],
      "name": "name",
      "outputs": [
        {
          "internalType": "string",
          "name": "",
          "type": "string"
        }
      ],
      "stateMutability": "view",
      "type": "function"
    },
    {
      "inputs": [],
      "name": "owner",
      "outputs": [
        {
          "internalType": "address",
          "name": "",
          "type": "address"
        }
      ],
      "stateMutability": "view",
      "type": "function"
    },
    {
      "inputs": [
        {
          "internalType": "uint256",
          "name": "tokenId",
          "type": "uint256"
        }
      ],
      "name": "ownerOf",
      "outputs": [
        {
          "internalType": "address",
          "name": "",
          "type": "address"
        }
      ],
      "stateMutability": "view",
      "type": "function"
    },
    {
      "inputs": [],
      "name": "publicMint",
      "outputs": [],
      "stateMutability": "nonpayable",
      "type": "function"
    },
    {
      "inputs": [],
      "name": "renounceOwnership",
      "outputs": [],
      "stateMutability": "nonpayable",
      "type": "function"
    },
    {
      "inputs": [
        {
          "internalType": "bytes32",
          "name": "role",
          "type": "bytes32"
        },
        {
          "internalType": "address",
          "name": "account",
          "type": "address"
        }
      ],
      "name": "renounceRole",
      "outputs": [],
      "stateMutability": "nonpayable",
      "type": "function"
    },
    {
      "inputs": [
        {
          "internalType": "bytes32",
          "name": "role",
          "type": "bytes32"
        },
        {
          "internalType": "address",
          "name": "account",
          "type": "address"
        }
      ],
      "name": "revokeRole",
      "outputs": [],
      "stateMutability": "nonpayable",
      "type": "function"
    },
    {
      "inputs": [
        {
          "internalType": "address",
          "name": "account",
          "type": "address"
        },
        {
          "internalType": "uint256",
          "name": "tokenId",
          "type": "uint256"
        },
        {
          "internalType": "bytes",
          "name": "signature",
          "type": "bytes"
        }
      ],
      "name": "safeMint",
      "outputs": [],
      "stateMutability": "nonpayable",
      "type": "function"
    },
    {
      "inputs": [
        {
          "internalType": "address",
          "name": "from",
          "type": "address"
        },
        {
          "internalType": "address",
          "name": "to",
          "type": "address"
        },
        {
          "internalType": "uint256",
          "name": "tokenId",
          "type": "uint256"
        }
      ],
      "name": "safeTransferFrom",
      "outputs": [],
      "stateMutability": "nonpayable",
      "type": "function"
    },
    {
      "inputs": [
        {
          "internalType": "address",
          "name": "from",
          "type": "address"
        },
        {
          "internalType": "address",
          "name": "to",
          "type": "address"
        },
        {
          "internalType": "uint256",
          "name": "tokenId",
          "type": "uint256"
        },
        {
          "internalType": "bytes",
          "name": "_data",
          "type": "bytes"
        }
      ],
      "name": "safeTransferFrom",
      "outputs": [],
      "stateMutability": "nonpayable",
      "type": "function"
    },
    {
      "inputs": [
        {
          "internalType": "address",
          "name": "operator",
          "type": "address"
        },
        {
          "internalType": "bool",
          "name": "approved",
          "type": "bool"
        }
      ],
      "name": "setApprovalForAll",
      "outputs": [],
      "stateMutability": "nonpayable",
      "type": "function"
    },
    {
      "inputs": [
        {
          "internalType": "bytes4",
          "name": "interfaceId",
          "type": "bytes4"
        }
      ],
      "name": "supportsInterface",
      "outputs": [
        {
          "internalType": "bool",
          "name": "",
          "type": "bool"
        }
      ],
      "stateMutability": "view",
      "type": "function"
    },
    {
      "inputs": [],
      "name": "symbol",
      "outputs": [
        {
          "internalType": "string",
          "name": "",
          "type": "string"
        }
      ],
      "stateMutability": "view",
      "type": "function"
    },
    {
      "inputs": [
        {
          "internalType": "uint256",
          "name": "tokenId",
          "type": "uint256"
        }
      ],
      "name": "tokenURI",
      "outputs": [
        {
          "internalType": "string",
          "name": "",
          "type": "string"
        }
      ],
      "stateMutability": "view",
      "type": "function"
    },
    {
      "inputs": [
        {
          "internalType": "address",
          "name": "from",
          "type": "address"
        },
        {
          "internalType": "address",
          "name": "to",
          "type": "address"
        },
        {
          "internalType": "uint256",
          "name": "tokenId",
          "type": "uint256"
        }
      ],
      "name": "transferFrom",
      "outputs": [],
      "stateMutability": "nonpayable",
      "type": "function"
    },
    {
      "inputs": [
        {
          "internalType": "address",
          "name": "newOwner",
          "type": "address"
        }
      ],
      "name": "transferOwnership",
      "outputs": [],
      "stateMutability": "nonpayable",
      "type": "function"
    }
  ],
  "bytecode": "0x6080604052604051806060016040528060228152602001620048f7602291396009908051906020019062000035929190620003a9565b503480156200004357600080fd5b506040518060400160405280600381526020017f45474700000000000000000000000000000000000000000000000000000000008152506040518060400160405280600981526020017f456767706c616e747300000000000000000000000000000000000000000000008152508160009080519060200190620000c8929190620003a9565b508060019080519060200190620000e1929190620003a9565b50505062000104620000f86200016860201b60201c565b6200017060201b60201c565b620001196000801b336200023660201b60201c565b6200014b7f9f2df0fed2c77648de5860a4cc508cd0818c85b8b8a1ab4ceeef8d981c8956a6336200023660201b60201c565b6200016260086200032860201b620010651760201c565b620004be565b600033905090565b6000600660009054906101000a900473ffffffffffffffffffffffffffffffffffffffff16905081600660006101000a81548173ffffffffffffffffffffffffffffffffffffffff021916908373ffffffffffffffffffffffffffffffffffffffff1602179055508173ffffffffffffffffffffffffffffffffffffffff168173ffffffffffffffffffffffffffffffffffffffff167f8be0079c531659141344cd1fd0a4f28419497f9722a3daafe3b4186f6b6457e060405160405180910390a35050565b6200024882826200033e60201b60201c565b620003245760016007600084815260200190815260200160002060000160008373ffffffffffffffffffffffffffffffffffffffff1673ffffffffffffffffffffffffffffffffffffffff16815260200190815260200160002060006101000a81548160ff021916908315150217905550620002c96200016860201b60201c565b73ffffffffffffffffffffffffffffffffffffffff168173ffffffffffffffffffffffffffffffffffffffff16837f2f8788117e7eff1d82e926ec794901d17c78024a50270940304540a733656f0d60405160405180910390a45b5050565b6001816000016000828254019250508190555050565b60006007600084815260200190815260200160002060000160008373ffffffffffffffffffffffffffffffffffffffff1673ffffffffffffffffffffffffffffffffffffffff16815260200190815260200160002060009054906101000a900460ff16905092915050565b828054620003b79062000459565b90600052602060002090601f016020900481019282620003db576000855562000427565b82601f10620003f657805160ff191683800117855562000427565b8280016001018555821562000427579182015b828111156200042657825182559160200191906001019062000409565b5b5090506200043691906200043a565b5090565b5b80821115620004555760008160009055506001016200043b565b5090565b600060028204905060018216806200047257607f821691505b602082108114156200048957620004886200048f565b5b50919050565b7f4e487b7100000000000000000000000000000000000000000000000000000000600052602260045260246000fd5b61442980620004ce6000396000f3fe608060405234801561001057600080fd5b50600436106101a95760003560e01c806370a08231116100f9578063a22cb46511610097578063d539139311610071578063d5391393146104b8578063d547741f146104d6578063e985e9c5146104f2578063f2fde38b14610522576101a9565b8063a22cb46514610450578063b88d4fde1461046c578063c87b56dd14610488576101a9565b80638da5cb5b116100d35780638da5cb5b146103c657806391d14854146103e457806395d89b4114610414578063a217fddf14610432576101a9565b806370a0823114610370578063715018a6146103a05780638832e6e3146103aa576101a9565b806326092b831161016657806342842e0e1161014057806342842e0e146102d65780634c3c383a146102f25780636352211e146103225780636c0360eb14610352576101a9565b806326092b83146102945780632f2ff15d1461029e57806336568abe146102ba576101a9565b806301ffc9a7146101ae57806306fdde03146101de578063081812fc146101fc578063095ea7b31461022c57806323b872dd14610248578063248a9ca314610264575b600080fd5b6101c860048036038101906101c39190612db2565b61053e565b6040516101d591906134b2565b60405180910390f35b6101e6610550565b6040516101f3919061352d565b60405180910390f35b61021660048036038101906102119190612e04565b6105e2565b604051610223919061344b565b60405180910390f35b61024660048036038101906102419190612ca5565b610667565b005b610262600480360381019061025d9190612b9f565b61077f565b005b61027e60048036038101906102799190612d4d565b6107df565b60405161028b91906134cd565b60405180910390f35b61029c6107ff565b005b6102b860048036038101906102b39190612d76565b610824565b005b6102d460048036038101906102cf9190612d76565b61084d565b005b6102f060048036038101906102eb9190612b9f565b6108d0565b005b61030c60048036038101906103079190612ca5565b6108f0565b60405161031991906134cd565b60405180910390f35b61033c60048036038101906103379190612e04565b61092b565b604051610349919061344b565b60405180910390f35b61035a6109dd565b604051610367919061352d565b60405180910390f35b61038a60048036038101906103859190612b3a565b610a6b565b604051610397919061382f565b60405180910390f35b6103a8610b23565b005b6103c460048036038101906103bf9190612ce1565b610bab565b005b6103ce610c6a565b6040516103db919061344b565b60405180910390f35b6103fe60048036038101906103f99190612d76565b610c94565b60405161040b91906134b2565b60405180910390f35b61041c610cff565b604051610429919061352d565b60405180910390f35b61043a610d91565b60405161044791906134cd565b60405180910390f35b61046a60048036038101906104659190612c69565b610d98565b005b61048660048036038101906104819190612bee565b610dae565b005b6104a2600480360381019061049d9190612e04565b610e10565b6040516104af919061352d565b60405180910390f35b6104c0610e8c565b6040516104cd91906134cd565b60405180910390f35b6104f060048036038101906104eb9190612d76565b610eb0565b005b61050c60048036038101906105079190612b63565b610ed9565b60405161051991906134b2565b60405180910390f35b61053c60048036038101906105379190612b3a565b610f6d565b005b60006105498261107b565b9050919050565b60606000805461055f90613b04565b80601f016020809104026020016040519081016040528092919081815260200182805461058b90613b04565b80156105d85780601f106105ad576101008083540402835291602001916105d8565b820191906000526020600020905b8154815290600101906020018083116105bb57829003601f168201915b5050505050905090565b60006105ed826110f5565b61062c576040517f08c379a00000000000000000000000000000000000000000000000000000000081526004016106239061376f565b60405180910390fd5b6004600083815260200190815260200160002060009054906101000a900473ffffffffffffffffffffffffffffffffffffffff169050919050565b60006106728261092b565b90508073ffffffffffffffffffffffffffffffffffffffff168373ffffffffffffffffffffffffffffffffffffffff1614156106e3576040517f08c379a00000000000000000000000000000000000000000000000000000000081526004016106da906137cf565b60405180910390fd5b8073ffffffffffffffffffffffffffffffffffffffff16610702611161565b73ffffffffffffffffffffffffffffffffffffffff16148061073157506107308161072b611161565b610ed9565b5b610770576040517f08c379a0000000000000000000000000000000000000000000000000000000008152600401610767906136af565b60405180910390fd5b61077a8383611169565b505050565b61079061078a611161565b82611222565b6107cf576040517f08c379a00000000000000000000000000000000000000000000000000000000081526004016107c6906137ef565b60405180910390fd5b6107da838383611300565b505050565b600060076000838152602001908152602001600020600101549050919050565b600061080b600861155c565b90506108176008611065565b610821338261156a565b50565b61082d826107df565b61083e81610839611161565b611588565b6108488383611625565b505050565b610855611161565b73ffffffffffffffffffffffffffffffffffffffff168173ffffffffffffffffffffffffffffffffffffffff16146108c2576040517f08c379a00000000000000000000000000000000000000000000000000000000081526004016108b99061380f565b60405180910390fd5b6108cc8282611706565b5050565b6108eb83838360405180602001604052806000815250610dae565b505050565b60006109238383604051602001610908929190613390565b604051602081830303815290604052805190602001206117e8565b905092915050565b6000806002600084815260200190815260200160002060009054906101000a900473ffffffffffffffffffffffffffffffffffffffff169050600073ffffffffffffffffffffffffffffffffffffffff168173ffffffffffffffffffffffffffffffffffffffff1614156109d4576040517f08c379a00000000000000000000000000000000000000000000000000000000081526004016109cb906136ef565b60405180910390fd5b80915050919050565b600980546109ea90613b04565b80601f0160208091040260200160405190810160405280929190818152602001828054610a1690613b04565b8015610a635780601f10610a3857610100808354040283529160200191610a63565b820191906000526020600020905b815481529060010190602001808311610a4657829003601f168201915b505050505081565b60008073ffffffffffffffffffffffffffffffffffffffff168273ffffffffffffffffffffffffffffffffffffffff161415610adc576040517f08c379a0000000000000000000000000000000000000000000000000000000008152600401610ad3906136cf565b60405180910390fd5b600360008373ffffffffffffffffffffffffffffffffffffffff1673ffffffffffffffffffffffffffffffffffffffff168152602001908152602001600020549050919050565b610b2b611161565b73ffffffffffffffffffffffffffffffffffffffff16610b49610c6a565b73ffffffffffffffffffffffffffffffffffffffff1614610b9f576040517f08c379a0000000000000000000000000000000000000000000000000000000008152600401610b969061378f565b60405180910390fd5b610ba96000611818565b565b610c02610bb885856108f0565b83838080601f016020809104026020016040519081016040528093929190818152602001838380828437600081840152601f19601f820116905080830192505050505050506118de565b610c41576040517f08c379a0000000000000000000000000000000000000000000000000000000008152600401610c389061358f565b60405180910390fd5b6000610c4d600861155c565b9050610c596008611065565b610c63858261156a565b5050505050565b6000600660009054906101000a900473ffffffffffffffffffffffffffffffffffffffff16905090565b60006007600084815260200190815260200160002060000160008373ffffffffffffffffffffffffffffffffffffffff1673ffffffffffffffffffffffffffffffffffffffff16815260200190815260200160002060009054906101000a900460ff16905092915050565b606060018054610d0e90613b04565b80601f0160208091040260200160405190810160405280929190818152602001828054610d3a90613b04565b8015610d875780601f10610d5c57610100808354040283529160200191610d87565b820191906000526020600020905b815481529060010190602001808311610d6a57829003601f168201915b5050505050905090565b6000801b81565b610daa610da3611161565b8383611920565b5050565b610dbf610db9611161565b83611222565b610dfe576040517f08c379a0000000000000000000000000000000000000000000000000000000008152600401610df5906137ef565b60405180910390fd5b610e0a84848484611a8d565b50505050565b6060610e1b826110f5565b610e5a576040517f08c379a0000000000000000000000000000000000000000000000000000000008152600401610e519061374f565b60405180910390fd5b6009610e6583611ae9565b604051602001610e769291906133bc565b6040516020818303038152906040529050919050565b7f9f2df0fed2c77648de5860a4cc508cd0818c85b8b8a1ab4ceeef8d981c8956a681565b610eb9826107df565b610eca81610ec5611161565b611588565b610ed48383611706565b505050565b6000600560008473ffffffffffffffffffffffffffffffffffffffff1673ffffffffffffffffffffffffffffffffffffffff16815260200190815260200160002060008373ffffffffffffffffffffffffffffffffffffffff1673ffffffffffffffffffffffffffffffffffffffff16815260200190815260200160002060009054906101000a900460ff16905092915050565b610f75611161565b73ffffffffffffffffffffffffffffffffffffffff16610f93610c6a565b73ffffffffffffffffffffffffffffffffffffffff1614610fe9576040517f08c379a0000000000000000000000000000000000000000000000000000000008152600401610fe09061378f565b60405180910390fd5b600073ffffffffffffffffffffffffffffffffffffffff168173ffffffffffffffffffffffffffffffffffffffff161415611059576040517f08c379a0000000000000000000000000000000000000000000000000000000008152600401611050906135ef565b60405180910390fd5b61106281611818565b50565b6001816000016000828254019250508190555050565b60007f7965db0b000000000000000000000000000000000000000000000000000000007bffffffffffffffffffffffffffffffffffffffffffffffffffffffff1916827bffffffffffffffffffffffffffffffffffffffffffffffffffffffff191614806110ee57506110ed82611c96565b5b9050919050565b60008073ffffffffffffffffffffffffffffffffffffffff166002600084815260200190815260200160002060009054906101000a900473ffffffffffffffffffffffffffffffffffffffff1673ffffffffffffffffffffffffffffffffffffffff1614159050919050565b600033905090565b816004600083815260200190815260200160002060006101000a81548173ffffffffffffffffffffffffffffffffffffffff021916908373ffffffffffffffffffffffffffffffffffffffff160217905550808273ffffffffffffffffffffffffffffffffffffffff166111dc8361092b565b73ffffffffffffffffffffffffffffffffffffffff167f8c5be1e5ebec7d5bd14f71427d1e84f3dd0314c0f7b2291e5b200ac8c7c3b92560405160405180910390a45050565b600061122d826110f5565b61126c576040517f08c379a00000000000000000000000000000000000000000000000000000000081526004016112639061368f565b60405180910390fd5b60006112778361092b565b90508073ffffffffffffffffffffffffffffffffffffffff168473ffffffffffffffffffffffffffffffffffffffff1614806112e657508373ffffffffffffffffffffffffffffffffffffffff166112ce846105e2565b73ffffffffffffffffffffffffffffffffffffffff16145b806112f757506112f68185610ed9565b5b91505092915050565b8273ffffffffffffffffffffffffffffffffffffffff166113208261092b565b73ffffffffffffffffffffffffffffffffffffffff1614611376576040517f08c379a000000000000000000000000000000000000000000000000000000000815260040161136d906137af565b60405180910390fd5b600073ffffffffffffffffffffffffffffffffffffffff168273ffffffffffffffffffffffffffffffffffffffff1614156113e6576040517f08c379a00000000000000000000000000000000000000000000000000000000081526004016113dd9061362f565b60405180910390fd5b6113f1838383611d78565b6113fc600082611169565b6001600360008573ffffffffffffffffffffffffffffffffffffffff1673ffffffffffffffffffffffffffffffffffffffff168152602001908152602001600020600082825461144c91906139d9565b925050819055506001600360008473ffffffffffffffffffffffffffffffffffffffff1673ffffffffffffffffffffffffffffffffffffffff16815260200190815260200160002060008282546114a391906138f8565b92505081905550816002600083815260200190815260200160002060006101000a81548173ffffffffffffffffffffffffffffffffffffffff021916908373ffffffffffffffffffffffffffffffffffffffff160217905550808273ffffffffffffffffffffffffffffffffffffffff168473ffffffffffffffffffffffffffffffffffffffff167fddf252ad1be2c89b69c2b068fc378daa952ba7f163c4a11628f55a4df523b3ef60405160405180910390a4505050565b600081600001549050919050565b611584828260405180602001604052806000815250611d7d565b5050565b6115928282610c94565b611621576115b78173ffffffffffffffffffffffffffffffffffffffff166014611dd8565b6115c58360001c6020611dd8565b6040516020016115d6929190613411565b6040516020818303038152906040526040517f08c379a0000000000000000000000000000000000000000000000000000000008152600401611618919061352d565b60405180910390fd5b5050565b61162f8282610c94565b6117025760016007600084815260200190815260200160002060000160008373ffffffffffffffffffffffffffffffffffffffff1673ffffffffffffffffffffffffffffffffffffffff16815260200190815260200160002060006101000a81548160ff0219169083151502179055506116a7611161565b73ffffffffffffffffffffffffffffffffffffffff168173ffffffffffffffffffffffffffffffffffffffff16837f2f8788117e7eff1d82e926ec794901d17c78024a50270940304540a733656f0d60405160405180910390a45b5050565b6117108282610c94565b156117e45760006007600084815260200190815260200160002060000160008373ffffffffffffffffffffffffffffffffffffffff1673ffffffffffffffffffffffffffffffffffffffff16815260200190815260200160002060006101000a81548160ff021916908315150217905550611789611161565b73ffffffffffffffffffffffffffffffffffffffff168173ffffffffffffffffffffffffffffffffffffffff16837ff6391f5c32d9c69d2a47ea670b442974b53935d1edc7fd64eb21e047a839171b60405160405180910390a45b5050565b6000816040516020016117fb91906133eb565b604051602081830303815290604052805190602001209050919050565b6000600660009054906101000a900473ffffffffffffffffffffffffffffffffffffffff16905081600660006101000a81548173ffffffffffffffffffffffffffffffffffffffff021916908373ffffffffffffffffffffffffffffffffffffffff1602179055508173ffffffffffffffffffffffffffffffffffffffff168173ffffffffffffffffffffffffffffffffffffffff167f8be0079c531659141344cd1fd0a4f28419497f9722a3daafe3b4186f6b6457e060405160405180910390a35050565b6000806118eb84846120d2565b90506119177f9f2df0fed2c77648de5860a4cc508cd0818c85b8b8a1ab4ceeef8d981c8956a682610c94565b91505092915050565b8173ffffffffffffffffffffffffffffffffffffffff168373ffffffffffffffffffffffffffffffffffffffff16141561198f576040517f08c379a00000000000000000000000000000000000000000000000000000000081526004016119869061364f565b60405180910390fd5b80600560008573ffffffffffffffffffffffffffffffffffffffff1673ffffffffffffffffffffffffffffffffffffffff16815260200190815260200160002060008473ffffffffffffffffffffffffffffffffffffffff1673ffffffffffffffffffffffffffffffffffffffff16815260200190815260200160002060006101000a81548160ff0219169083151502179055508173ffffffffffffffffffffffffffffffffffffffff168373ffffffffffffffffffffffffffffffffffffffff167f17307eab39ab6107e8899845ad3d59bd9653f200f220920489ca2b5937696c3183604051611a8091906134b2565b60405180910390a3505050565b611a98848484611300565b611aa4848484846120f9565b611ae3576040517f08c379a0000000000000000000000000000000000000000000000000000000008152600401611ada906135cf565b60405180910390fd5b50505050565b60606000821415611b31576040518060400160405280600181526020017f30000000000000000000000000000000000000000000000000000000000000008152509050611c91565b600082905060005b60008214611b63578080611b4c90613b67565b915050600a82611b5c919061394e565b9150611b39565b60008167ffffffffffffffff811115611ba5577f4e487b7100000000000000000000000000000000000000000000000000000000600052604160045260246000fd5b6040519080825280601f01601f191660200182016040528015611bd75781602001600182028036833780820191505090505b5090505b60008514611c8a57600182611bf091906139d9565b9150600a85611bff9190613be8565b6030611c0b91906138f8565b60f81b818381518110611c47577f4e487b7100000000000000000000000000000000000000000000000000000000600052603260045260246000fd5b60200101907effffffffffffffffffffffffffffffffffffffffffffffffffffffffffffff1916908160001a905350600a85611c83919061394e565b9450611bdb565b8093505050505b919050565b60007f80ac58cd000000000000000000000000000000000000000000000000000000007bffffffffffffffffffffffffffffffffffffffffffffffffffffffff1916827bffffffffffffffffffffffffffffffffffffffffffffffffffffffff19161480611d6157507f5b5e139f000000000000000000000000000000000000000000000000000000007bffffffffffffffffffffffffffffffffffffffffffffffffffffffff1916827bffffffffffffffffffffffffffffffffffffffffffffffffffffffff1916145b80611d715750611d7082612290565b5b9050919050565b505050565b611d8783836122fa565b611d9460008484846120f9565b611dd3576040517f08c379a0000000000000000000000000000000000000000000000000000000008152600401611dca906135cf565b60405180910390fd5b505050565b606060006002836002611deb919061397f565b611df591906138f8565b67ffffffffffffffff811115611e34577f4e487b7100000000000000000000000000000000000000000000000000000000600052604160045260246000fd5b6040519080825280601f01601f191660200182016040528015611e665781602001600182028036833780820191505090505b5090507f300000000000000000000000000000000000000000000000000000000000000081600081518110611ec4577f4e487b7100000000000000000000000000000000000000000000000000000000600052603260045260246000fd5b60200101907effffffffffffffffffffffffffffffffffffffffffffffffffffffffffffff1916908160001a9053507f780000000000000000000000000000000000000000000000000000000000000081600181518110611f4e577f4e487b7100000000000000000000000000000000000000000000000000000000600052603260045260246000fd5b60200101907effffffffffffffffffffffffffffffffffffffffffffffffffffffffffffff1916908160001a90535060006001846002611f8e919061397f565b611f9891906138f8565b90505b6001811115612084577f3031323334353637383961626364656600000000000000000000000000000000600f861660108110612000577f4e487b7100000000000000000000000000000000000000000000000000000000600052603260045260246000fd5b1a60f81b82828151811061203d577f4e487b7100000000000000000000000000000000000000000000000000000000600052603260045260246000fd5b60200101907effffffffffffffffffffffffffffffffffffffffffffffffffffffffffffff1916908160001a905350600485901c94508061207d90613ada565b9050611f9b565b50600084146120c8576040517f08c379a00000000000000000000000000000000000000000000000000000000081526004016120bf9061356f565b60405180910390fd5b8091505092915050565b60008060006120e185856124c8565b915091506120ee8161254b565b819250505092915050565b600061211a8473ffffffffffffffffffffffffffffffffffffffff1661289c565b15612283578373ffffffffffffffffffffffffffffffffffffffff1663150b7a02612143611161565b8786866040518563ffffffff1660e01b81526004016121659493929190613466565b602060405180830381600087803b15801561217f57600080fd5b505af19250505080156121b057506040513d601f19601f820116820180604052508101906121ad9190612ddb565b60015b612233573d80600081146121e0576040519150601f19603f3d011682016040523d82523d6000602084013e6121e5565b606091505b5060008151141561222b576040517f08c379a0000000000000000000000000000000000000000000000000000000008152600401612222906135cf565b60405180910390fd5b805181602001fd5b63150b7a0260e01b7bffffffffffffffffffffffffffffffffffffffffffffffffffffffff1916817bffffffffffffffffffffffffffffffffffffffffffffffffffffffff191614915050612288565b600190505b949350505050565b60007f01ffc9a7000000000000000000000000000000000000000000000000000000007bffffffffffffffffffffffffffffffffffffffffffffffffffffffff1916827bffffffffffffffffffffffffffffffffffffffffffffffffffffffff1916149050919050565b600073ffffffffffffffffffffffffffffffffffffffff168273ffffffffffffffffffffffffffffffffffffffff16141561236a576040517f08c379a00000000000000000000000000000000000000000000000000000000081526004016123619061372f565b60405180910390fd5b612373816110f5565b156123b3576040517f08c379a00000000000000000000000000000000000000000000000000000000081526004016123aa9061360f565b60405180910390fd5b6123bf60008383611d78565b6001600360008473ffffffffffffffffffffffffffffffffffffffff1673ffffffffffffffffffffffffffffffffffffffff168152602001908152602001600020600082825461240f91906138f8565b92505081905550816002600083815260200190815260200160002060006101000a81548173ffffffffffffffffffffffffffffffffffffffff021916908373ffffffffffffffffffffffffffffffffffffffff160217905550808273ffffffffffffffffffffffffffffffffffffffff16600073ffffffffffffffffffffffffffffffffffffffff167fddf252ad1be2c89b69c2b068fc378daa952ba7f163c4a11628f55a4df523b3ef60405160405180910390a45050565b60008060418351141561250a5760008060006020860151925060408601519150606086015160001a90506124fe878285856128af565b94509450505050612544565b60408351141561253b5760008060208501519150604085015190506125308683836129bc565b935093505050612544565b60006002915091505b9250929050565b60006004811115612585577f4e487b7100000000000000000000000000000000000000000000000000000000600052602160045260246000fd5b8160048111156125be577f4e487b7100000000000000000000000000000000000000000000000000000000600052602160045260246000fd5b14156125c957612899565b60016004811115612603577f4e487b7100000000000000000000000000000000000000000000000000000000600052602160045260246000fd5b81600481111561263c577f4e487b7100000000000000000000000000000000000000000000000000000000600052602160045260246000fd5b141561267d576040517f08c379a00000000000000000000000000000000000000000000000000000000081526004016126749061354f565b60405180910390fd5b600260048111156126b7577f4e487b7100000000000000000000000000000000000000000000000000000000600052602160045260246000fd5b8160048111156126f0577f4e487b7100000000000000000000000000000000000000000000000000000000600052602160045260246000fd5b1415612731576040517f08c379a0000000000000000000000000000000000000000000000000000000008152600401612728906135af565b60405180910390fd5b6003600481111561276b577f4e487b7100000000000000000000000000000000000000000000000000000000600052602160045260246000fd5b8160048111156127a4577f4e487b7100000000000000000000000000000000000000000000000000000000600052602160045260246000fd5b14156127e5576040517f08c379a00000000000000000000000000000000000000000000000000000000081526004016127dc9061366f565b60405180910390fd5b60048081111561281e577f4e487b7100000000000000000000000000000000000000000000000000000000600052602160045260246000fd5b816004811115612857577f4e487b7100000000000000000000000000000000000000000000000000000000600052602160045260246000fd5b1415612898576040517f08c379a000000000000000000000000000000000000000000000000000000000815260040161288f9061370f565b60405180910390fd5b5b50565b600080823b905060008111915050919050565b6000807f7fffffffffffffffffffffffffffffff5d576e7357a4501ddfe92f46681b20a08360001c11156128ea5760006003915091506129b3565b601b8560ff16141580156129025750601c8560ff1614155b156129145760006004915091506129b3565b60006001878787876040516000815260200160405260405161293994939291906134e8565b6020604051602081039080840390855afa15801561295b573d6000803e3d6000fd5b505050602060405103519050600073ffffffffffffffffffffffffffffffffffffffff168173ffffffffffffffffffffffffffffffffffffffff1614156129aa576000600192509250506129b3565b80600092509250505b94509492505050565b6000806000807f7fffffffffffffffffffffffffffffffffffffffffffffffffffffffffffffff85169150601b8560ff1c0190506129fc878288856128af565b935093505050935093915050565b6000612a1d612a188461386f565b61384a565b905082815260208101848484011115612a3557600080fd5b612a40848285613a98565b509392505050565b600081359050612a5781614380565b92915050565b600081359050612a6c81614397565b92915050565b600081359050612a81816143ae565b92915050565b600081359050612a96816143c5565b92915050565b600081519050612aab816143c5565b92915050565b60008083601f840112612ac357600080fd5b8235905067ffffffffffffffff811115612adc57600080fd5b602083019150836001820283011115612af457600080fd5b9250929050565b600082601f830112612b0c57600080fd5b8135612b1c848260208601612a0a565b91505092915050565b600081359050612b34816143dc565b92915050565b600060208284031215612b4c57600080fd5b6000612b5a84828501612a48565b91505092915050565b60008060408385031215612b7657600080fd5b6000612b8485828601612a48565b9250506020612b9585828601612a48565b9150509250929050565b600080600060608486031215612bb457600080fd5b6000612bc286828701612a48565b9350506020612bd386828701612a48565b9250506040612be486828701612b25565b9150509250925092565b60008060008060808587031215612c0457600080fd5b6000612c1287828801612a48565b9450506020612c2387828801612a48565b9350506040612c3487828801612b25565b925050606085013567ffffffffffffffff811115612c5157600080fd5b612c5d87828801612afb565b91505092959194509250565b60008060408385031215612c7c57600080fd5b6000612c8a85828601612a48565b9250506020612c9b85828601612a5d565b9150509250929050565b60008060408385031215612cb857600080fd5b6000612cc685828601612a48565b9250506020612cd785828601612b25565b9150509250929050565b60008060008060608587031215612cf757600080fd5b6000612d0587828801612a48565b9450506020612d1687828801612b25565b935050604085013567ffffffffffffffff811115612d3357600080fd5b612d3f87828801612ab1565b925092505092959194509250565b600060208284031215612d5f57600080fd5b6000612d6d84828501612a72565b91505092915050565b60008060408385031215612d8957600080fd5b6000612d9785828601612a72565b9250506020612da885828601612a48565b9150509250929050565b600060208284031215612dc457600080fd5b6000612dd284828501612a87565b91505092915050565b600060208284031215612ded57600080fd5b6000612dfb84828501612a9c565b91505092915050565b600060208284031215612e1657600080fd5b6000612e2484828501612b25565b91505092915050565b612e3681613a0d565b82525050565b612e4d612e4882613a0d565b613bb0565b82525050565b612e5c81613a1f565b82525050565b612e6b81613a2b565b82525050565b612e82612e7d82613a2b565b613bc2565b82525050565b6000612e93826138b5565b612e9d81856138cb565b9350612ead818560208601613aa7565b612eb681613cd5565b840191505092915050565b6000612ecc826138c0565b612ed681856138dc565b9350612ee6818560208601613aa7565b612eef81613cd5565b840191505092915050565b6000612f05826138c0565b612f0f81856138ed565b9350612f1f818560208601613aa7565b80840191505092915050565b60008154612f3881613b04565b612f4281866138ed565b94506001821660008114612f5d5760018114612f6e57612fa1565b60ff19831686528186019350612fa1565b612f77856138a0565b60005b83811015612f9957815481890152600182019150602081019050612f7a565b838801955050505b50505092915050565b6000612fb76018836138dc565b9150612fc282613cf3565b602082019050919050565b6000612fda6020836138dc565b9150612fe582613d1c565b602082019050919050565b6000612ffd6011836138dc565b915061300882613d45565b602082019050919050565b6000613020601f836138dc565b915061302b82613d6e565b602082019050919050565b6000613043601c836138ed565b915061304e82613d97565b601c82019050919050565b60006130666032836138dc565b915061307182613dc0565b604082019050919050565b60006130896026836138dc565b915061309482613e0f565b604082019050919050565b60006130ac601c836138dc565b91506130b782613e5e565b602082019050919050565b60006130cf6024836138dc565b91506130da82613e87565b604082019050919050565b60006130f26019836138dc565b91506130fd82613ed6565b602082019050919050565b60006131156022836138dc565b915061312082613eff565b604082019050919050565b6000613138602c836138dc565b915061314382613f4e565b604082019050919050565b600061315b6038836138dc565b915061316682613f9d565b604082019050919050565b600061317e602a836138dc565b915061318982613fec565b604082019050919050565b60006131a16029836138dc565b91506131ac8261403b565b604082019050919050565b60006131c46022836138dc565b91506131cf8261408a565b604082019050919050565b60006131e76020836138dc565b91506131f2826140d9565b602082019050919050565b600061320a602b836138dc565b915061321582614102565b604082019050919050565b600061322d602c836138dc565b915061323882614151565b604082019050919050565b60006132506005836138ed565b915061325b826141a0565b600582019050919050565b60006132736020836138dc565b915061327e826141c9565b602082019050919050565b60006132966029836138dc565b91506132a1826141f2565b604082019050919050565b60006132b96021836138dc565b91506132c482614241565b604082019050919050565b60006132dc6031836138dc565b91506132e782614290565b604082019050919050565b60006132ff6017836138ed565b915061330a826142df565b601782019050919050565b60006133226011836138ed565b915061332d82614308565b601182019050919050565b6000613345602f836138dc565b915061335082614331565b604082019050919050565b61336481613a81565b82525050565b61337b61337682613a81565b613bde565b82525050565b61338a81613a8b565b82525050565b600061339c8285612e3c565b6014820191506133ac828461336a565b6020820191508190509392505050565b60006133c88285612f2b565b91506133d48284612efa565b91506133df82613243565b91508190509392505050565b60006133f682613036565b91506134028284612e71565b60208201915081905092915050565b600061341c826132f2565b91506134288285612efa565b915061343382613315565b915061343f8284612efa565b91508190509392505050565b60006020820190506134606000830184612e2d565b92915050565b600060808201905061347b6000830187612e2d565b6134886020830186612e2d565b613495604083018561335b565b81810360608301526134a78184612e88565b905095945050505050565b60006020820190506134c76000830184612e53565b92915050565b60006020820190506134e26000830184612e62565b92915050565b60006080820190506134fd6000830187612e62565b61350a6020830186613381565b6135176040830185612e62565b6135246060830184612e62565b95945050505050565b600060208201905081810360008301526135478184612ec1565b905092915050565b6000602082019050818103600083015261356881612faa565b9050919050565b6000602082019050818103600083015261358881612fcd565b9050919050565b600060208201905081810360008301526135a881612ff0565b9050919050565b600060208201905081810360008301526135c881613013565b9050919050565b600060208201905081810360008301526135e881613059565b9050919050565b600060208201905081810360008301526136088161307c565b9050919050565b600060208201905081810360008301526136288161309f565b9050919050565b60006020820190508181036000830152613648816130c2565b9050919050565b60006020820190508181036000830152613668816130e5565b9050919050565b6000602082019050818103600083015261368881613108565b9050919050565b600060208201905081810360008301526136a88161312b565b9050919050565b600060208201905081810360008301526136c88161314e565b9050919050565b600060208201905081810360008301526136e881613171565b9050919050565b6000602082019050818103600083015261370881613194565b9050919050565b60006020820190508181036000830152613728816131b7565b9050919050565b60006020820190508181036000830152613748816131da565b9050919050565b60006020820190508181036000830152613768816131fd565b9050919050565b6000602082019050818103600083015261378881613220565b9050919050565b600060208201905081810360008301526137a881613266565b9050919050565b600060208201905081810360008301526137c881613289565b9050919050565b600060208201905081810360008301526137e8816132ac565b9050919050565b60006020820190508181036000830152613808816132cf565b9050919050565b6000602082019050818103600083015261382881613338565b9050919050565b6000602082019050613844600083018461335b565b92915050565b6000613854613865565b90506138608282613b36565b919050565b6000604051905090565b600067ffffffffffffffff82111561388a57613889613ca6565b5b61389382613cd5565b9050602081019050919050565b60008190508160005260206000209050919050565b600081519050919050565b600081519050919050565b600082825260208201905092915050565b600082825260208201905092915050565b600081905092915050565b600061390382613a81565b915061390e83613a81565b9250827fffffffffffffffffffffffffffffffffffffffffffffffffffffffffffffffff0382111561394357613942613c19565b5b828201905092915050565b600061395982613a81565b915061396483613a81565b92508261397457613973613c48565b5b828204905092915050565b600061398a82613a81565b915061399583613a81565b9250817fffffffffffffffffffffffffffffffffffffffffffffffffffffffffffffffff04831182151516156139ce576139cd613c19565b5b828202905092915050565b60006139e482613a81565b91506139ef83613a81565b925082821015613a0257613a01613c19565b5b828203905092915050565b6000613a1882613a61565b9050919050565b60008115159050919050565b6000819050919050565b60007fffffffff0000000000000000000000000000000000000000000000000000000082169050919050565b600073ffffffffffffffffffffffffffffffffffffffff82169050919050565b6000819050919050565b600060ff82169050919050565b82818337600083830152505050565b60005b83811015613ac5578082015181840152602081019050613aaa565b83811115613ad4576000848401525b50505050565b6000613ae582613a81565b91506000821415613af957613af8613c19565b5b600182039050919050565b60006002820490506001821680613b1c57607f821691505b60208210811415613b3057613b2f613c77565b5b50919050565b613b3f82613cd5565b810181811067ffffffffffffffff82111715613b5e57613b5d613ca6565b5b80604052505050565b6000613b7282613a81565b91507fffffffffffffffffffffffffffffffffffffffffffffffffffffffffffffffff821415613ba557613ba4613c19565b5b600182019050919050565b6000613bbb82613bcc565b9050919050565b6000819050919050565b6000613bd782613ce6565b9050919050565b6000819050919050565b6000613bf382613a81565b9150613bfe83613a81565b925082613c0e57613c0d613c48565b5b828206905092915050565b7f4e487b7100000000000000000000000000000000000000000000000000000000600052601160045260246000fd5b7f4e487b7100000000000000000000000000000000000000000000000000000000600052601260045260246000fd5b7f4e487b7100000000000000000000000000000000000000000000000000000000600052602260045260246000fd5b7f4e487b7100000000000000000000000000000000000000000000000000000000600052604160045260246000fd5b6000601f19601f8301169050919050565b60008160601b9050919050565b7f45434453413a20696e76616c6964207369676e61747572650000000000000000600082015250565b7f537472696e67733a20686578206c656e67746820696e73756666696369656e74600082015250565b7f696e76616c6964207369676e6174757265000000000000000000000000000000600082015250565b7f45434453413a20696e76616c6964207369676e6174757265206c656e67746800600082015250565b7f19457468657265756d205369676e6564204d6573736167653a0a333200000000600082015250565b7f4552433732313a207472616e7366657220746f206e6f6e20455243373231526560008201527f63656976657220696d706c656d656e7465720000000000000000000000000000602082015250565b7f4f776e61626c653a206e6577206f776e657220697320746865207a65726f206160008201527f6464726573730000000000000000000000000000000000000000000000000000602082015250565b7f4552433732313a20746f6b656e20616c7265616479206d696e74656400000000600082015250565b7f4552433732313a207472616e7366657220746f20746865207a65726f2061646460008201527f7265737300000000000000000000000000000000000000000000000000000000602082015250565b7f4552433732313a20617070726f766520746f2063616c6c657200000000000000600082015250565b7f45434453413a20696e76616c6964207369676e6174757265202773272076616c60008201527f7565000000000000000000000000000000000000000000000000000000000000602082015250565b7f4552433732313a206f70657261746f7220717565727920666f72206e6f6e657860008201527f697374656e7420746f6b656e0000000000000000000000000000000000000000602082015250565b7f4552433732313a20617070726f76652063616c6c6572206973206e6f74206f7760008201527f6e6572206e6f7220617070726f76656420666f7220616c6c0000000000000000602082015250565b7f4552433732313a2062616c616e636520717565727920666f7220746865207a6560008201527f726f206164647265737300000000000000000000000000000000000000000000602082015250565b7f4552433732313a206f776e657220717565727920666f72206e6f6e657869737460008201527f656e7420746f6b656e0000000000000000000000000000000000000000000000602082015250565b7f45434453413a20696e76616c6964207369676e6174757265202776272076616c60008201527f7565000000000000000000000000000000000000000000000000000000000000602082015250565b7f4552433732313a206d696e7420746f20746865207a65726f2061646472657373600082015250565b7f4552433732314d657461646174613a20717565727920666f72206e6f6e65786960008201527f7374656e7420746f6b656e000000000000000000000000000000000000000000602082015250565b7f4552433732313a20617070726f76656420717565727920666f72206e6f6e657860008201527f697374656e7420746f6b656e0000000000000000000000000000000000000000602082015250565b7f2e6a736f6e000000000000000000000000000000000000000000000000000000600082015250565b7f4f776e61626c653a2063616c6c6572206973206e6f7420746865206f776e6572600082015250565b7f4552433732313a207472616e73666572206f6620746f6b656e2074686174206960008201527f73206e6f74206f776e0000000000000000000000000000000000000000000000602082015250565b7f4552433732313a20617070726f76616c20746f2063757272656e74206f776e6560008201527f7200000000000000000000000000000000000000000000000000000000000000602082015250565b7f4552433732313a207472616e736665722063616c6c6572206973206e6f74206f60008201527f776e6572206e6f7220617070726f766564000000000000000000000000000000602082015250565b7f416363657373436f6e74726f6c3a206163636f756e7420000000000000000000600082015250565b7f206973206d697373696e6720726f6c6520000000000000000000000000000000600082015250565b7f416363657373436f6e74726f6c3a2063616e206f6e6c792072656e6f756e636560008201527f20726f6c657320666f722073656c660000000000000000000000000000000000602082015250565b61438981613a0d565b811461439457600080fd5b50565b6143a081613a1f565b81146143ab57600080fd5b50565b6143b781613a2b565b81146143c257600080fd5b50565b6143ce81613a35565b81146143d957600080fd5b50565b6143e581613a81565b81146143f057600080fd5b5056fea26469706673582212204690360556b2343f328e7987c1f87baa201e6b35583624d8b11eb35f0d4dd19e64736f6c6343000804003368747470733a2f2f676174657761792e70696e6174612e636c6f75642f697066732f",
  "linkReferences": {},
  "deployedLinkReferences": {}
}